{
  "contractName": "Scholarship",
  "abi": [
    {
      "inputs": [],
      "stateMutability": "nonpayable",
      "type": "constructor"
    },
    {
      "anonymous": false,
      "inputs": [
        {
          "indexed": true,
          "internalType": "address",
          "name": "applicant",
          "type": "address"
        }
      ],
      "name": "Applied",
      "type": "event"
    },
    {
      "anonymous": false,
      "inputs": [
        {
          "indexed": true,
          "internalType": "address",
          "name": "donor",
          "type": "address"
        },
        {
          "indexed": false,
          "internalType": "uint256",
          "name": "amount",
          "type": "uint256"
        }
      ],
      "name": "Donated",
      "type": "event"
    },
    {
      "anonymous": false,
      "inputs": [
        {
          "indexed": true,
          "internalType": "address",
          "name": "recipient",
          "type": "address"
        },
        {
          "indexed": false,
          "internalType": "uint256",
          "name": "amount",
          "type": "uint256"
        }
      ],
      "name": "FundsReleased",
      "type": "event"
    },
    {
      "inputs": [],
      "name": "admin",
      "outputs": [
        {
          "internalType": "address",
          "name": "",
          "type": "address"
        }
      ],
      "stateMutability": "view",
      "type": "function",
      "constant": true
    },
    {
      "inputs": [
        {
          "internalType": "address",
          "name": "",
          "type": "address"
        }
      ],
      "name": "applicants",
      "outputs": [
        {
          "internalType": "bool",
          "name": "",
          "type": "bool"
        }
      ],
      "stateMutability": "view",
      "type": "function",
      "constant": true
    },
    {
      "inputs": [],
      "name": "totalDonations",
      "outputs": [
        {
          "internalType": "uint256",
          "name": "",
          "type": "uint256"
        }
      ],
      "stateMutability": "view",
      "type": "function",
      "constant": true
    },
    {
      "inputs": [],
      "name": "donate",
      "outputs": [],
      "stateMutability": "payable",
      "type": "function",
      "payable": true
    },
    {
      "inputs": [],
      "name": "applyForScholarship",
      "outputs": [],
      "stateMutability": "nonpayable",
      "type": "function"
    },
    {
      "inputs": [
        {
          "internalType": "address payable",
          "name": "recipient",
          "type": "address"
        },
        {
          "internalType": "uint256",
          "name": "amount",
          "type": "uint256"
        }
      ],
      "name": "releaseFunds",
      "outputs": [],
      "stateMutability": "nonpayable",
      "type": "function"
    },
    {
      "inputs": [],
      "name": "getBalance",
      "outputs": [
        {
          "internalType": "uint256",
          "name": "",
          "type": "uint256"
        }
      ],
      "stateMutability": "view",
      "type": "function",
      "constant": true
    }
  ],
  "bytecode": "0x608060405234801561001057600080fd5b50336000806101000a81548173ffffffffffffffffffffffffffffffffffffffff021916908373ffffffffffffffffffffffffffffffffffffffff160217905550610936806100606000396000f3fe6080604052600436106100705760003560e01c8063d6e982e51161004e578063d6e982e5146100f4578063de2ed8931461011d578063ed88c68e14610148578063f851a4401461015257610070565b806312065fe0146100755780635a9ffa2e146100a0578063ccd66863146100b7575b600080fd5b34801561008157600080fd5b5061008a61017d565b6040516100979190610527565b60405180910390f35b3480156100ac57600080fd5b506100b5610185565b005b3480156100c357600080fd5b506100de60048036038101906100d991906105a5565b6102ae565b6040516100eb91906105ed565b60405180910390f35b34801561010057600080fd5b5061011b60048036038101906101169190610672565b6102ce565b005b34801561012957600080fd5b50610132610438565b60405161013f9190610527565b60405180910390f35b61015061043e565b005b34801561015e57600080fd5b506101676104ea565b60405161017491906106c1565b60405180910390f35b600047905090565b600160003373ffffffffffffffffffffffffffffffffffffffff1673ffffffffffffffffffffffffffffffffffffffff16815260200190815260200160002060009054906101000a900460ff1615610212576040517f08c379a000000000000000000000000000000000000000000000000000000000815260040161020990610739565b60405180910390fd5b60018060003373ffffffffffffffffffffffffffffffffffffffff1673ffffffffffffffffffffffffffffffffffffffff16815260200190815260200160002060006101000a81548160ff0219169083151502179055503373ffffffffffffffffffffffffffffffffffffffff167f83f970044e0c4e2d8a4922431cb57df4cd6dc71f67b619eb184d105e3b6d917a60405160405180910390a2565b60016020528060005260406000206000915054906101000a900460ff1681565b60008054906101000a900473ffffffffffffffffffffffffffffffffffffffff1673ffffffffffffffffffffffffffffffffffffffff163373ffffffffffffffffffffffffffffffffffffffff161461035c576040517f08c379a0000000000000000000000000000000000000000000000000000000008152600401610353906107a5565b60405180910390fd5b8047101561039f576040517f08c379a000000000000000000000000000000000000000000000000000000000815260040161039690610811565b60405180910390fd5b8173ffffffffffffffffffffffffffffffffffffffff166108fc829081150290604051600060405180830381858888f193505050501580156103e5573d6000803e3d6000fd5b508173ffffffffffffffffffffffffffffffffffffffff167f221c08a06b07a64803b3787861a3f276212fcccb51c2e6234077a9b8cb13047a8260405161042c9190610527565b60405180910390a25050565b60025481565b60003411610481576040517f08c379a00000000000000000000000000000000000000000000000000000000081526004016104789061087d565b60405180910390fd5b346002600082825461049391906108cc565b925050819055503373ffffffffffffffffffffffffffffffffffffffff167f2a01595cddf097c90216094025db714da3f4e5bd8877b56ba86a24ecead8e543346040516104e09190610527565b60405180910390a2565b60008054906101000a900473ffffffffffffffffffffffffffffffffffffffff1681565b6000819050919050565b6105218161050e565b82525050565b600060208201905061053c6000830184610518565b92915050565b600080fd5b600073ffffffffffffffffffffffffffffffffffffffff82169050919050565b600061057282610547565b9050919050565b61058281610567565b811461058d57600080fd5b50565b60008135905061059f81610579565b92915050565b6000602082840312156105bb576105ba610542565b5b60006105c984828501610590565b91505092915050565b60008115159050919050565b6105e7816105d2565b82525050565b600060208201905061060260008301846105de565b92915050565b600061061382610547565b9050919050565b61062381610608565b811461062e57600080fd5b50565b6000813590506106408161061a565b92915050565b61064f8161050e565b811461065a57600080fd5b50565b60008135905061066c81610646565b92915050565b6000806040838503121561068957610688610542565b5b600061069785828601610631565b92505060206106a88582860161065d565b9150509250929050565b6106bb81610567565b82525050565b60006020820190506106d660008301846106b2565b92915050565b600082825260208201905092915050565b7f416c7265616479206170706c6965640000000000000000000000000000000000600082015250565b6000610723600f836106dc565b915061072e826106ed565b602082019050919050565b6000602082019050818103600083015261075281610716565b9050919050565b7f4f6e6c792061646d696e2063616e2072656c656173652066756e647300000000600082015250565b600061078f601c836106dc565b915061079a82610759565b602082019050919050565b600060208201905081810360008301526107be81610782565b9050919050565b7f496e73756666696369656e742062616c616e6365000000000000000000000000600082015250565b60006107fb6014836106dc565b9150610806826107c5565b602082019050919050565b6000602082019050818103600083015261082a816107ee565b9050919050565b7f446f6e6174696f6e206d7573742062652067726561746572207468616e203000600082015250565b6000610867601f836106dc565b915061087282610831565b602082019050919050565b600060208201905081810360008301526108968161085a565b9050919050565b7f4e487b7100000000000000000000000000000000000000000000000000000000600052601160045260246000fd5b60006108d78261050e565b91506108e28361050e565b92508282019050808211156108fa576108f961089d565b5b9291505056fea2646970667358221220c0bcede3c8f31c712f6db48e2f248a2b281bfb09db2e29372719e4a89279969064736f6c63430008120033",
  "immutableReferences": {},
  "source": "// SPDX-License-Identifier: MIT\npragma solidity ^0.8.0;\n\ncontract Scholarship {\n    address public admin;\n    mapping(address => bool) public applicants;\n    uint256 public totalDonations;\n\n    event Donated(address indexed donor, uint256 amount);\n    event Applied(address indexed applicant);\n    event FundsReleased(address indexed recipient, uint256 amount);\n\n    constructor() {\n        admin = msg.sender;\n    }\n\n    function donate() public payable {\n        require(msg.value > 0, \"Donation must be greater than 0\");\n        totalDonations += msg.value;\n        emit Donated(msg.sender, msg.value);\n    }\n\n    function applyForScholarship() public {\n        require(!applicants[msg.sender], \"Already applied\");\n        applicants[msg.sender] = true;\n        emit Applied(msg.sender);\n    }\n\n    function releaseFunds(address payable recipient, uint256 amount) public {\n        require(msg.sender == admin, \"Only admin can release funds\");\n        require(address(this).balance >= amount, \"Insufficient balance\");\n        recipient.transfer(amount);\n        emit FundsReleased(recipient, amount);\n    }\n\n    function getBalance() public view returns (uint256) {\n        return address(this).balance;\n    }\n}\n",
  "sourcePath": "/media/babalao/MY_PC/Projects/Blochain/Funds/contracts/Scholarship.sol",
  "compiler": {
    "name": "solc",
    "version": "0.8.18+commit.87f61d96.Emscripten.clang"
  },
  "schemaVersion": "3.4.16",
  "updatedAt": "2025-06-02T12:33:50.584Z",
  "networkType": "ethereum",
  "devdoc": {
    "kind": "dev",
    "methods": {},
    "version": 1
  },
  "userdoc": {
    "kind": "user",
    "methods": {},
    "version": 1
  }
}